{
  "_format": "hh3-artifact-1",
  "contractName": "PaymentEscrow",
  "sourceName": "contracts/PaymentEscrow.sol",
  "abi": [
    {
      "inputs": [
        {
          "internalType": "address",
          "name": "_pyusdToken",
          "type": "address"
        }
      ],
      "stateMutability": "nonpayable",
      "type": "constructor"
    },
    {
      "inputs": [],
      "name": "InsufficientAllowance",
      "type": "error"
    },
    {
      "inputs": [],
      "name": "InvalidAddress",
      "type": "error"
    },
    {
      "inputs": [],
      "name": "InvalidAmount",
      "type": "error"
    },
    {
      "inputs": [],
      "name": "InvalidState",
      "type": "error"
    },
    {
      "inputs": [],
      "name": "OrderAlreadyExists",
      "type": "error"
    },
    {
      "inputs": [],
      "name": "OrderAlreadyFunded",
      "type": "error"
    },
    {
      "inputs": [],
      "name": "OrderNotFound",
      "type": "error"
    },
    {
      "inputs": [],
      "name": "OrderNotFunded",
      "type": "error"
    },
    {
      "inputs": [
        {
          "internalType": "address",
          "name": "owner",
          "type": "address"
        }
      ],
      "name": "OwnableInvalidOwner",
      "type": "error"
    },
    {
      "inputs": [
        {
          "internalType": "address",
          "name": "account",
          "type": "address"
        }
      ],
      "name": "OwnableUnauthorizedAccount",
      "type": "error"
    },
    {
      "inputs": [],
      "name": "ReentrancyGuardReentrantCall",
      "type": "error"
    },
    {
      "inputs": [],
      "name": "TransferFailed",
      "type": "error"
    },
    {
      "anonymous": false,
      "inputs": [
        {
          "indexed": true,
          "internalType": "bytes32",
          "name": "orderId",
          "type": "bytes32"
        },
        {
          "indexed": true,
          "internalType": "address",
          "name": "vendor",
          "type": "address"
        },
        {
          "indexed": false,
          "internalType": "uint256",
          "name": "amount",
          "type": "uint256"
        }
      ],
      "name": "EscrowCreated",
      "type": "event"
    },
    {
      "anonymous": false,
      "inputs": [
        {
          "indexed": true,
          "internalType": "bytes32",
          "name": "orderId",
          "type": "bytes32"
        }
      ],
      "name": "EscrowDisputed",
      "type": "event"
    },
    {
      "anonymous": false,
      "inputs": [
        {
          "indexed": true,
          "internalType": "bytes32",
          "name": "orderId",
          "type": "bytes32"
        },
        {
          "indexed": true,
          "internalType": "address",
          "name": "buyer",
          "type": "address"
        },
        {
          "indexed": false,
          "internalType": "uint256",
          "name": "amount",
          "type": "uint256"
        }
      ],
      "name": "EscrowFunded",
      "type": "event"
    },
    {
      "anonymous": false,
      "inputs": [
        {
          "indexed": true,
          "internalType": "bytes32",
          "name": "orderId",
          "type": "bytes32"
        },
        {
          "indexed": true,
          "internalType": "address",
          "name": "buyer",
          "type": "address"
        },
        {
          "indexed": false,
          "internalType": "uint256",
          "name": "amount",
          "type": "uint256"
        }
      ],
      "name": "EscrowRefunded",
      "type": "event"
    },
    {
      "anonymous": false,
      "inputs": [
        {
          "indexed": true,
          "internalType": "bytes32",
          "name": "orderId",
          "type": "bytes32"
        },
        {
          "indexed": true,
          "internalType": "address",
          "name": "vendor",
          "type": "address"
        },
        {
          "indexed": false,
          "internalType": "uint256",
          "name": "amount",
          "type": "uint256"
        }
      ],
      "name": "EscrowReleased",
      "type": "event"
    },
    {
      "anonymous": false,
      "inputs": [
        {
          "indexed": true,
          "internalType": "address",
          "name": "previousOwner",
          "type": "address"
        },
        {
          "indexed": true,
          "internalType": "address",
          "name": "newOwner",
          "type": "address"
        }
      ],
      "name": "OwnershipTransferred",
      "type": "event"
    },
    {
      "inputs": [
        {
          "internalType": "bytes32",
          "name": "orderId",
          "type": "bytes32"
        },
        {
          "internalType": "address",
          "name": "vendor",
          "type": "address"
        },
        {
          "internalType": "uint256",
          "name": "amount",
          "type": "uint256"
        }
      ],
      "name": "createEscrow",
      "outputs": [],
      "stateMutability": "nonpayable",
      "type": "function"
    },
    {
      "inputs": [
        {
          "internalType": "bytes32",
          "name": "",
          "type": "bytes32"
        }
      ],
      "name": "escrows",
      "outputs": [
        {
          "internalType": "bytes32",
          "name": "orderId",
          "type": "bytes32"
        },
        {
          "internalType": "address",
          "name": "buyer",
          "type": "address"
        },
        {
          "internalType": "address",
          "name": "vendor",
          "type": "address"
        },
        {
          "internalType": "uint256",
          "name": "amount",
          "type": "uint256"
        },
        {
          "internalType": "enum PaymentEscrow.EscrowState",
          "name": "state",
          "type": "uint8"
        },
        {
          "internalType": "uint256",
          "name": "createdAt",
          "type": "uint256"
        },
        {
          "internalType": "uint256",
          "name": "updatedAt",
          "type": "uint256"
        }
      ],
      "stateMutability": "view",
      "type": "function"
    },
    {
      "inputs": [
        {
          "internalType": "bytes32",
          "name": "orderId",
          "type": "bytes32"
        }
      ],
      "name": "fundEscrow",
      "outputs": [],
      "stateMutability": "nonpayable",
      "type": "function"
    },
    {
      "inputs": [],
      "name": "getBalance",
      "outputs": [
        {
          "internalType": "uint256",
          "name": "",
          "type": "uint256"
        }
      ],
      "stateMutability": "view",
      "type": "function"
    },
    {
      "inputs": [
        {
          "internalType": "bytes32",
          "name": "orderId",
          "type": "bytes32"
        }
      ],
      "name": "getEscrow",
      "outputs": [
        {
          "components": [
            {
              "internalType": "bytes32",
              "name": "orderId",
              "type": "bytes32"
            },
            {
              "internalType": "address",
              "name": "buyer",
              "type": "address"
            },
            {
              "internalType": "address",
              "name": "vendor",
              "type": "address"
            },
            {
              "internalType": "uint256",
              "name": "amount",
              "type": "uint256"
            },
            {
              "internalType": "enum PaymentEscrow.EscrowState",
              "name": "state",
              "type": "uint8"
            },
            {
              "internalType": "uint256",
              "name": "createdAt",
              "type": "uint256"
            },
            {
              "internalType": "uint256",
              "name": "updatedAt",
              "type": "uint256"
            }
          ],
          "internalType": "struct PaymentEscrow.EscrowOrder",
          "name": "",
          "type": "tuple"
        }
      ],
      "stateMutability": "view",
      "type": "function"
    },
    {
      "inputs": [
        {
          "internalType": "bytes32",
          "name": "orderId",
          "type": "bytes32"
        }
      ],
      "name": "markAsDisputed",
      "outputs": [],
      "stateMutability": "nonpayable",
      "type": "function"
    },
    {
      "inputs": [
        {
          "internalType": "bytes32",
          "name": "orderId",
          "type": "bytes32"
        }
      ],
      "name": "orderExists",
      "outputs": [
        {
          "internalType": "bool",
          "name": "",
          "type": "bool"
        }
      ],
      "stateMutability": "view",
      "type": "function"
    },
    {
      "inputs": [],
      "name": "owner",
      "outputs": [
        {
          "internalType": "address",
          "name": "",
          "type": "address"
        }
      ],
      "stateMutability": "view",
      "type": "function"
    },
    {
      "inputs": [],
      "name": "pyusdToken",
      "outputs": [
        {
          "internalType": "contract IERC20",
          "name": "",
          "type": "address"
        }
      ],
      "stateMutability": "view",
      "type": "function"
    },
    {
      "inputs": [
        {
          "internalType": "bytes32",
          "name": "orderId",
          "type": "bytes32"
        }
      ],
      "name": "refundFunds",
      "outputs": [],
      "stateMutability": "nonpayable",
      "type": "function"
    },
    {
      "inputs": [
        {
          "internalType": "bytes32",
          "name": "orderId",
          "type": "bytes32"
        }
      ],
      "name": "releaseFunds",
      "outputs": [],
      "stateMutability": "nonpayable",
      "type": "function"
    },
    {
      "inputs": [],
      "name": "renounceOwnership",
      "outputs": [],
      "stateMutability": "nonpayable",
      "type": "function"
    },
    {
      "inputs": [
        {
          "internalType": "address",
          "name": "newOwner",
          "type": "address"
        }
      ],
      "name": "transferOwnership",
      "outputs": [],
      "stateMutability": "nonpayable",
      "type": "function"
    }
  ],
  "bytecode": "0x60a060405234801561000f575f5ffd5b5060405161105a38038061105a83398101604081905261002e916100e8565b338061005357604051631e4fbdf760e01b81525f600482015260240160405180910390fd5b61005c81610099565b50600180556001600160a01b0381166100885760405163e6c4247b60e01b815260040160405180910390fd5b6001600160a01b0316608052610115565b5f80546001600160a01b038381166001600160a01b0319831681178455604051919092169283917f8be0079c531659141344cd1fd0a4f28419497f9722a3daafe3b4186f6b6457e09190a35050565b5f602082840312156100f8575f5ffd5b81516001600160a01b038116811461010e575f5ffd5b9392505050565b608051610f0a6101505f395f81816101d101528181610289015281816104a20152818161064b01528181610acc0152610b8e0152610f0a5ff3fe608060405234801561000f575f5ffd5b50600436106100cb575f3560e01c80639176300911610088578063d761389011610063578063d761389014610219578063f023b8111461022c578063f2fde38b1461024c578063f8e65d611461025f575f5ffd5b806391763009146101cc5780639fd70182146101f3578063c92ee04314610206575f5ffd5b806312065fe0146100cf5780632cb77e9f146100ea5780632d83549c1461011e578063715018a61461018b5780637c5fb17c146101955780638da5cb5b146101a8575b5f5ffd5b6100d7610272565b6040519081526020015b60405180910390f35b61010e6100f8366004610d39565b5f90815260026020526040902060030154151590565b60405190151581526020016100e1565b61017861012c366004610d39565b600260208190525f9182526040909120805460018201549282015460038301546004840154600585015460069095015493956001600160a01b0390811695931693919260ff9091169187565b6040516100e19796959493929190610d84565b6101936102ff565b005b6101936101a3366004610d39565b610312565b5f546001600160a01b03165b6040516001600160a01b0390911681526020016100e1565b6101b47f000000000000000000000000000000000000000000000000000000000000000081565b610193610201366004610d39565b6103c9565b610193610214366004610d39565b61059d565b610193610227366004610de6565b610733565b61023f61023a366004610d39565b6108f3565b6040516100e19190610e18565b61019361025a366004610e7e565b6109fe565b61019361026d366004610d39565b610a3d565b6040516370a0823160e01b81523060048201525f907f00000000000000000000000000000000000000000000000000000000000000006001600160a01b0316906370a0823190602401602060405180830381865afa1580156102d6573d5f5f3e3d5ffd5b505050506040513d601f19601f820116820180604052508101906102fa9190610e9e565b905090565b610307610c94565b6103105f610cc0565b565b61031a610c94565b5f818152600260205260408120600381015490910361034c5760405163d36d896560e01b815260040160405180910390fd5b600160048083015460ff169081111561036757610367610d50565b146103855760405163baf3f0f760e01b815260040160405180910390fd5b6004818101805460ff1916909117905542600682015560405182907f550ba3f95fa658596451573e6d789afa3858d8a992cb121712d3df88cff5765c905f90a25050565b6103d1610c94565b6103d9610d0f565b5f818152600260205260408120600381015490910361040b5760405163d36d896560e01b815260040160405180910390fd5b600160048083015460ff169081111561042657610426610d50565b14610444576040516330b5cae960e21b815260040160405180910390fd5b60018101546001600160a01b031661046f5760405163e6c4247b60e01b815260040160405180910390fd5b6001810154600382015460405163a9059cbb60e01b81526001600160a01b03928316600482015260248101919091525f917f0000000000000000000000000000000000000000000000000000000000000000169063a9059cbb906044016020604051808303815f875af11580156104e8573d5f5f3e3d5ffd5b505050506040513d601f19601f8201168201806040525081019061050c9190610eb5565b90508061052c576040516312171d8360e31b815260040160405180910390fd5b60048201805460ff191660039081179091554260068401556001830154908301546040519081526001600160a01b039091169084907ffc31a7ddbe933aa6e67f3c98c183fbc87addd2b602fcfb10238d2f85cf026617906020015b60405180910390a3505061059a60018055565b50565b6105a5610c94565b6105ad610d0f565b5f81815260026020526040812060038101549091036105df5760405163d36d896560e01b815260040160405180910390fd5b600160048083015460ff16908111156105fa576105fa610d50565b14610618576040516330b5cae960e21b815260040160405180910390fd5b6002810154600382015460405163a9059cbb60e01b81526001600160a01b03928316600482015260248101919091525f917f0000000000000000000000000000000000000000000000000000000000000000169063a9059cbb906044016020604051808303815f875af1158015610691573d5f5f3e3d5ffd5b505050506040513d601f19601f820116820180604052508101906106b59190610eb5565b9050806106d5576040516312171d8360e31b815260040160405180910390fd5b60048201805460ff1916600290811790915542600684015582015460038301546040519081526001600160a01b039091169084907f3a9c1cd29cd3be251a72ce3c367c27dc1cb697ac4589965b76a83f9a25ca071090602001610587565b61073b610c94565b6001600160a01b0382166107625760405163e6c4247b60e01b815260040160405180910390fd5b805f036107825760405163162908e360e11b815260040160405180910390fd5b5f83815260026020526040902060030154156107b15760405163966753c560e01b815260040160405180910390fd5b6040518060e001604052808481526020015f6001600160a01b03168152602001836001600160a01b031681526020018281526020015f60048111156107f8576107f8610d50565b81524260208083018290526040928301919091525f8681526002808352908390208451815591840151600180840180546001600160a01b039384166001600160a01b03199182161790915594860151928401805493909216929094169190911790556060830151600382015560808301516004808301805493949293909260ff1990911691849081111561088e5761088e610d50565b021790555060a0820151816005015560c08201518160060155905050816001600160a01b0316837f21a21580d9fcb6cc5ccbc4f5ccc7f2572840ce32811890c39dbe438f0f48034e836040516108e691815260200190565b60405180910390a3505050565b6109306040805160e0810182525f808252602082018190529181018290526060810182905290608082019081526020015f81526020015f81525090565b5f8281526002602052604081206003015490036109605760405163d36d896560e01b815260040160405180910390fd5b5f82815260026020818152604092839020835160e0810185528154815260018201546001600160a01b0390811693820193909352928101549091169282019290925260038201546060820152600480830154919291608084019160ff909116908111156109cf576109cf610d50565b60048111156109e0576109e0610d50565b81526005820154602082015260069091015460409091015292915050565b610a06610c94565b6001600160a01b038116610a3457604051631e4fbdf760e01b81525f60048201526024015b60405180910390fd5b61059a81610cc0565b610a45610d0f565b5f8181526002602052604081206003810154909103610a775760405163d36d896560e01b815260040160405180910390fd5b5f60048083015460ff1690811115610a9157610a91610d50565b14610aaf576040516372d01aab60e01b815260040160405180910390fd5b604051636eb1769f60e11b81523360048201523060248201525f907f00000000000000000000000000000000000000000000000000000000000000006001600160a01b03169063dd62ed3e90604401602060405180830381865afa158015610b19573d5f5f3e3d5ffd5b505050506040513d601f19601f82011682018060405250810190610b3d9190610e9e565b90508160030154811015610b64576040516313be252b60e01b815260040160405180910390fd5b60038201546040516323b872dd60e01b815233600482015230602482015260448101919091525f907f00000000000000000000000000000000000000000000000000000000000000006001600160a01b0316906323b872dd906064016020604051808303815f875af1158015610bdc573d5f5f3e3d5ffd5b505050506040513d601f19601f82011682018060405250810190610c009190610eb5565b905080610c20576040516312171d8360e31b815260040160405180910390fd5b600180840180546001600160a01b0319163317905560048401805460ff1916828002179055504260068401556003830154604051908152339085907fb0f7b6ab70e0186c433938ee752b2498a7cab42018e6bf7596cd704c81c470bc9060200160405180910390a350505061059a60018055565b5f546001600160a01b031633146103105760405163118cdaa760e01b8152336004820152602401610a2b565b5f80546001600160a01b038381166001600160a01b0319831681178455604051919092169283917f8be0079c531659141344cd1fd0a4f28419497f9722a3daafe3b4186f6b6457e09190a35050565b600260015403610d3257604051633ee5aeb560e01b815260040160405180910390fd5b6002600155565b5f60208284031215610d49575f5ffd5b5035919050565b634e487b7160e01b5f52602160045260245ffd5b60058110610d8057634e487b7160e01b5f52602160045260245ffd5b9052565b8781526001600160a01b038781166020830152861660408201526060810185905260e08101610db66080830186610d64565b60a082019390935260c0015295945050505050565b80356001600160a01b0381168114610de1575f5ffd5b919050565b5f5f5f60608486031215610df8575f5ffd5b83359250610e0860208501610dcb565b9150604084013590509250925092565b5f60e0820190508251825260018060a01b03602084015116602083015260018060a01b036040840151166040830152606083015160608301526080830151610e636080840182610d64565b5060a083015160a083015260c083015160c083015292915050565b5f60208284031215610e8e575f5ffd5b610e9782610dcb565b9392505050565b5f60208284031215610eae575f5ffd5b5051919050565b5f60208284031215610ec5575f5ffd5b81518015158114610e97575f5ffdfea26469706673582212204e5bb1cf41c2f4cc30d7b4e518b40bcbe3cb9b30f65aff147b0e6a7b9f95245964736f6c634300081c0033",
  "linkReferences": {},
  "deployedLinkReferences": {},
  "immutableReferences": {
    "337": [
      {
        "length": 32,
        "start": 465
      },
      {
        "length": 32,
        "start": 649
      },
      {
        "length": 32,
        "start": 1186
      },
      {
        "length": 32,
        "start": 1611
      },
      {
        "length": 32,
        "start": 2764
      },
      {
        "length": 32,
        "start": 2958
      }
    ]
  },
  "inputSourceName": "project/contracts/PaymentEscrow.sol",
  "buildInfoId": "solc-0_8_28-348231b0a4533073426dde4ce0c487f4b82fc4b0"
}